:020000040800F2
:10000000D804002001010008C5220008E91B0008EF
:10001000C122000849010008A923000800000000CF
:10002000000000000000000000000000CD220008D9
:100030004D01000800000000C9220008D12200087C
:100040001B0100081B0100081B0100081B01000820
:100050001B0100081B0100085101000855010008A0
:100060001B0100081B0100081B0100081B01000800
:100070001B0100081B0100081B0100081B010008F0
:100080001B0100081B0100081B0100081B010008E0
:100090001B0100081B0100081B0100081B010008D0
:1000A0001B0100081B0100081B0100081B010008C0
:1000B0001B0100081B01000800000000F91B0008DC
:1000C000ED1B000800000000000000001B010008FC
:1000D000000000009D2300081B0100080000000034
:1000E0001B0100081B0100081B010008DFF80CD0F1
:1000F00000F018F800480047AD230008D80400209D
:100100000648804706480047FEE7FEE7FEE7FEE7B1
:10011000FEE7FEE7FEE7FEE7FEE7FEE7D522000882
:10012000ED000008064C074D06E0E06840F00103D2
:1001300094E8070098471034AC42F6D3FFF7DAFF93
:10014000C4250008E4250008FEE700007047000011
:100150007047000070470000014690F82100022817
:1001600016D10868D1E90FC3026822F00E020260BE
:10017000026822F001020260012000FA03F2CCF8CA
:10018000042081F821000020002281F820207047FF
:10019000042088630120002281F82020704700009D
:1001A00080B590F82110022924D10268116821F04D
:1001B0000E0111602F211368C4F202018A4240F23D
:1001C0000401C4F2020123F00103136016DD3023A1
:1001D000C4F202039A421DD04423C4F202039A429D
:1001E0001CD05823C4F202039A421DD14FF480332D
:1001F00022E000BF04218163012080BD0823C4F2F6
:1002000002039A420ED01C23C4F202039A420BD17D
:10021000102311E04FF480730EE000BF4FF48053C1
:100220000AE000BF012307E001F1680C4FF0807382
:10023000624508BF4FF480130B60416B4FF480722E
:10024000028401B18847002080BD000090F82100A1
:1002500070470000B0B5044600F028F9054640F2AA
:100260000000C2F200000078611C18BF044400BF07
:1002700000F01CF9401BA042FAD3B0BD2DE9F04FAD
:1002800082B00E68002E00F0F98040F20C4C41F272
:1002900000024FF6FF7EC4F2010CC4F201020327F4
:1002A00000240123C1F2100E4FF0000B4FF00009A3
:1002B000904208BF022700974CE000BF40F6004282
:1002C000C4F20102009F904208BF012704F00C0312
:1002D0000F229A402AEA020207FA03F34FEA9B052B
:1002E0001A4346F82520D1F804A040F20045C4F294
:1002F00001055FEACA322A6854BF22EA080242EACC
:1003000008022A606A685FEA8A3354BF22EA080258
:1003100042EA08026A605FEACA23AA6854BF22EA76
:10032000080242EA08025FEA8A23AA60DCF8002099
:100330004FF0010354BF22EA080242EA0802CCF857
:1003400000200E680BF1010B36FA0BF204F10404E5
:1003500000F0948003FA0BF816EA080FF1D04E680B
:10036000764511DC122E55D8DFE806F0340A4448F1
:10037000545454545454545454545454544C50009D
:10038000D1F80C9046E000BF4FF6FF72C1F2210297
:1003900096420FDC0022C1F2110296421AD00022CE
:1003A000C1F21202964215D00022C1F221029642F9
:1003B00010D02FE00022C1F2220296420AD0002281
:1003C000C1F23102964205D00022C1F232029642B9
:1003D00020D100BF8A684AB1012A14BFC0F8148036
:1003E000C0F810804FF0080914E000BF4FF0040976
:1003F00010E000BFCA6802F108090BE04FF00009E5
:1004000008E000BFCA6802F1040903E0CA6802F10B
:100410000C0900BF22460646BBF1080F24BF203A54
:10042000043637680F25954027EA050509FA02F2D8
:100430002A433260CA79D2067FF583AF41F21803AE
:10044000C4F202031A6842F001021A601A6802F04C
:1004500001020192019A40F20042C4F20102A2F5A7
:100460007E762BF0030256F802A040F60002C4F29A
:10047000010290427FF422AF002727E702B0BDE8D7
:10048000F08F00008068084018BF0120704700000E
:10049000C26802EA0103914341EA034101617047E6
:1004A000002A08BF090401617047000040F2D00033
:1004B000C2F20000006870477047000070470000FB
:1004C000F0B581B00446006800254769426894F899
:1004D0003E1002F48076FA0508D53EB16FF48072C2
:1004E00042610268012542F400420260BA0505D566
:1004F000002E1EBF02356FF4007242617A0516D5D8
:10050000AEB1628D94F83D30D4F830C0202908BFD8
:10051000002A23D06FF48062402905F1040542616E
:1005200001D0102903D1016841F400710160380540
:1005300006D52EB1206808356FF40061416100E0F6
:1005400055B1206C40EA05012046216401B0BDE8A8
:10055000F04001F0E9BB00BF01B0F0BD03F0F701CE
:10056000212909D0282B08BFBCF1210F04D06FF43A
:10057000806141610435DAE794F83D10E26AB2F136
:10058000080318BF0123203A18BF0122134208BFF5
:1005900028291DD0212935D10021CFF6FF71E16234
:1005A00021212163202184F83D10002184F83E1090
:1005B000416821F4E06141606FF48061416101684C
:1005C00021F480610160204600F05AFCAFE700BFD3
:1005D0000021CFF6FF71E162416821F4E0614160E2
:1005E0006FF480614161016821F480610160002045
:1005F0002021206384F83D1084F83E00204600F05E
:10060000F1FB94E76FF48061416190E7F0B581B050
:10061000076804467868E26A94F83E3094F83DE052
:10062000402B01D0102B27D1BE697D69E90751D13C
:10063000B2F12A4F00F0BE82B2F52A0F00F0BA8262
:1006400000F400724FF0010C29078CEA522C45D5BA
:10065000002A43D0606B616CC9B2396118B1806AFD
:10066000002840F02481A06B002800F0A382806A5B
:10067000002840F01C819DE2216C00F400730029E9
:100680000CBFBE6900267D69A90753D5002B51D048
:10069000206C002818BFBE6994F83D0000F02800C7
:1006A000282840F093807868002320F480607860E8
:1006B000012020EA960130064FF0180058BF0C20A8
:1006C000225A204684F83C3001B0BDE8F040FFF7E4
:1006D000F5BE00BF810557D44FF0010CA90759D5CD
:1006E000BCF1000F56D194F83E30E06A226B94F8CA
:1006F0003D10222940F0E280216D002908BF402BE7
:1007000000F0DC80216D002940F032812169B1F5D3
:10071000404F40F02D810020009078690090B8692A
:1007200000900098386840F480703860206D013087
:1007300093E200BFE90655D5002B53D094F83D5005
:10074000786820F4E060786000200090786900907C
:10075000386840F0010038600098386820F4806004
:1007600038607868000540F1408105F0F7002646C2
:10077000222840F0198156F8380F0168496826F898
:100780000E1C36F80E1C17E1E06AB0F52A0F5FD197
:10079000012062E07968720701F4006100F198803D
:1007A000002940F00782690605F0040140F1AE819E
:1007B00010F4806000F0AA81002940F0A781204653
:1007C00001B0BDE8F04001F0E9BB00BF002000909F
:1007D00079690091B9690091009984F83C0001B0F1
:1007E000F0BD00BF0EF0F70100F48062212905F092
:1007F000040040F08380290640F14881002A00F07F
:100800004581002840F0428194F83D00618D002927
:1008100000F0D081616A11F8012B3A616162618D4B
:1008200001396185618D002908BF292840F0C28106
:100830007868282120F48060786021202063204699
:1008400084F83D1001B0BDE8F04000F019BB00BFD6
:10085000E06AB0F12A4F01D10820E06294F83E002E
:1008600040280BD1206D616C002801F0FE0018BFFC
:1008700040F00100386101B0F0BD00BF2069B0F563
:10088000804F65D194F83D00616C212801F0FE0194
:1008900018BF01313961606B08B1806A38B9A06B4B
:1008A000002800F08781806A002800F08381786842
:1008B00040F40060786001B0F0BD00BF00200090FF
:1008C00078690090B8690090009801B0F0BD00BF51
:1008D000002940F06F81290605F0040140F12281D2
:1008E00010F4806000F01E81002940F01B8120463A
:1008F00001B0BDE8F04001F02FBC00BF690640F137
:10090000D980002A00F0D680002840F0D38094F8E7
:100910003D00618D002900F04D813969626A1170D6
:10092000616A01316162618D01396185618D0029E2
:1009300008BF2A2840F03E812068416821F4806188
:100940004160222028212063204684F83D10D8E011
:10095000206D002800F0C080206D012840F02A8121
:10096000606C062101EAD010F130386101B0F0BDB1
:10097000618D61B1618D012940F0E480202818BFAC
:10098000082840F01981386820F480603860002021
:10099000009078690090B86900900098386840F439
:1009A0000070386058E100BF56F8340F016849689C
:1009B00026F80A1C36F80A1C19B1216C41F0040112
:1009C0002164796821F400617960FFF73FFC012818
:1009D0000BD0306841F60541C0F600014163FFF7D6
:1009E000DFFB10B13068416B8847608D60B12068D3
:1009F0004169490730D4416949063AD4608D18B13C
:100A0000206C40F004002064206C28B1204601B026
:100A1000BDE8F04001F088B92A2D07D100202063FD
:100A2000282084F83D00204600F028FA94F83D0084
:100A3000282859D10020CFF6FF70E0620021202045
:100A4000216384F83D00204684F83E1001B0BDE8E3
:100A5000F04000F0C7B900BF0069616A0870616AC0
:100A6000206801316162618D013961854169490602
:100A7000C4D50069616A0870606A01306062608D87
:100A800001386085608D0028BAD1BDE7002818BF05
:100A9000002B00F08F80608D002800F08B80606A52
:100AA00010F8011B39616062608D0138608501B00A
:100AB000F0BD00BF002818BF002B00F07B80608DC8
:100AC000002877D03869616A0870606A0130606216
:100AD000608D013860856DE0606C062101EAD01000
:100AE000F030386101B0F0BD206B222818BF222DF4
:100AF00060D100212020216384F83D00204684F845
:100B00003E1001B0BDE8F04000F0B8B9B1FA81F094
:100B1000400950EA0C004DD1204601B0BDE8F0403C
:100B200001F0C8B9B1FA81F0400950EA0C0041D196
:100B3000BEF1210F36D1204601B0BDE8F04001F0F2
:100B4000C9BA00BF618D022914D1102858D80121DB
:100B500014228140C0F20102114251D0396841F49F
:100B6000806139600021009179690091B969009133
:100B7000009954E0396841F4806139607968090569
:100B800063D5421E1F2A5DD80121914048F281029F
:100B9000C8F20002114255D0786840F48050786065
:100BA00053E000BF402B05D1204601B0BDE8F04026
:100BB00001F02CBB01B0F0BD10F5803F0CD13868BE
:100BC00020F480603860786800057FF5E0AE386812
:100BD00020F48060386038E0122A02D101287FF4C6
:100BE000D2AE1028F3D8012101FA00F01421C0F28E
:100BF00001010842EBD0386840F48060386024E09E
:100C0000396841F4006139600021009179690091EF
:100C1000B96900910099396821F480613960796877
:100C2000090519D5421E1F2A1AD80121914048F200
:100C30008102C8F20002114212D0786840F480505C
:100C4000786009E010F5803FA6D000200090786918
:100C50000090B869009000980020206501B0F0BDB8
:100C600010F5803FE9D0F7E77047000070B5B8B3E2
:100C7000044690F83D0028B9002084F83C00204646
:100C800000F0BAF8242084F83D002068016821F0C3
:100C900001010160016841F400410160016821F433
:100CA0000041016000F086FA48F28041C0F21E0166
:100CB00040F60013D4F804E088424FF00001C0F27F
:100CC0003D0348F2A16C4FF0000238BF0121984269
:100CD000C0F2010C38BF0122E64538BF0A460AB10E
:100CE000012070BD4DF68361C4F21B31A0FB0112DF
:100CF0002168950C4B684FF4967623F03F0343EA46
:100D00009243754344F6D3564B60C1F262060B6AB8
:100D1000A5FB0656B50923F03F03E64538BF950C01
:100D20006A1C1A430A62CA6948F2A0664CF6FF734D
:100D3000C0F20106B64522EA03020BD801384FEA99
:100D40004E03B0FBF3F001306FF31F30042898BF5F
:100D500004201EE0A368013863B119230EFB03F3DE
:100D6000B0FBF3F001306FF31F3078B100F5804035
:100D700008E000BF0EEB4E03B0FBF3F001306FF361
:100D80001F3028B100F5004003E000BF012000E063
:100D900001201043C8610868D4E9072320F0C0008F
:100DA000104318430860886848F2FF3204F10C06CB
:100DB00090434CCE18431043A5698860C86820F062
:100DC000FF0030432843C860086840F00100086015
:100DD00000202021206484F83D10206384F83E0028
:100DE00070BD0000704700007047000070470000B1
:100DF000704700007047000010B586B0016845F2EA
:100E00000040C4F20000814202D006B010BD00BF15
:100E100041F21804C4F20204216800F5384041F0A0
:100E200008012160216801F0080102910299C021A6
:100E3000029112210391002104910321059102A93D
:100E4000FFF71CFA6068002140F4001060606068E1
:100E5000002200F40010019001981F2000F08EF88D
:100E60001F2000F077F820200021002200F086F8F3
:100E7000202000F06FF806B010BD000070470000A1
:100E80007047000040F2000040F2D001C2F20000C2
:100E9000C2F2000100780A68104408607047000040
:100EA00080B542F20000C4F20200016841F0100176
:100EB0000160032000F08EF8002000F005F800F03B
:100EC00027F8002080BD000070B540F20006C2F295
:100ED000000640F208013278C2F200014FF47A7342
:100EE0000968B3FBF2F20446B1FBF2F1084600F0E8
:100EF00063FB0F2C4FF0010508D838B94FF0FF30D5
:100F000021460022002500F039F87460284670BDA3
:100F100082B041F21800C4F202000168022241F0DE
:100F200001010160016801F001010191019941682D
:100F300041F080514160406800F08050009000987E
:100F40000420C4F20100016862F31A61016002B07A
:100F500070470000002848BF7047C1B200F01F0072
:100F6000012202FA00F04EF20012CEF2000242EA32
:100F7000D10121F0030108607047000010B54EF662
:100F80000C5CCEF2000CDCF80030C3F3022E8EF0C5
:100F90000704042C28BF0424BEF103034FF0FF3ED6
:100FA0000EFA04F438BF0023A14399400EFA03F36C
:100FB0009A43114300F00F0200F160430901043A23
:100FC00003F564436244002848BF02F10C03197022
:100FD00010BD00004EF60C51CEF200010A684FF62B
:100FE000FF031A4060F30A2242F0806040F0FD7077
:100FF000086070472DE9F04381B0002800F085803B
:1010000042F20008C4F202080446D8F800000D4677
:1010100000F0070088420CD2D8F8000020F007004A
:101020002843C8F80000D8F8000000F00700A842E4
:101030006BD1206841F204098107C4F2020917D577
:10104000410705D5D9F8001041F4E061C9F8001056
:10105000010705D5D9F8001041F46051C9F8001016
:10106000D9F80010A26821F0F0011143C9F800106E
:10107000C00741D1D8F8000000F00700A8420CD901
:10108000D8F8000020F007002843C8F80000D8F87E
:10109000000000F00700A84237D12068410707D5BB
:1010A000D9F80010E26821F4E0611143C9F800109A
:1010B000000708D5D9F80000216920F4605040EA03
:1010C000C100C9F80000D9F8002002F00C0008287F
:1010D00041F20020C0F27A0050D142F2B453C2F380
:1010E0008341C0F60003595CD2033BD440F60010A4
:1010F000C0F23D00484341E0606802280AD0012860
:101100002AD159F8041C890308D4012001B0BDE894
:10111000F08300BF59F8041C8901F6D5D9F80010F6
:1011200021F003010843C9F80000FFF7BFF90646A4
:1011300041F28837D9F80000616800F00C00B0EB8C
:10114000810F97D0FFF7B2F9801BB842F2D9032084
:1011500001B0BDE8F08300BF59F8041C8907D4D55D
:10116000DCE700BFD9F8002042F29A53C2F34042B4
:10117000C0F600039A5C4843B0FBF2F0D9F80010C7
:1011800042F29C52C1F30311C0F60002515C40F2DE
:10119000080220FA01F140F20400C2F200000068E7
:1011A000C2F200021160FFF78FFE002001B0BDE81F
:1011B000F083000040F2080041F20401C2F2000096
:1011C000C4F202010068096842F2AC52C1F3022184
:1011D000C0F60002515CC8407047000040F20800B1
:1011E00041F20401C2F20000C4F202010068096881
:1011F00042F2AC52C1F3C221C0F60002515CC840B9
:10120000704700002DE9F04182B0002868D0044604
:10121000007841F20006C007C4F2020625D07068CB
:1012200000F00C0004281BD0706800F00C000828A7
:1012300002D17068C00313D46068002800F0688190
:10124000B0F5A02F00F07C81B0F5803F00F07C81EC
:10125000306820F480303060306820F4802076E1FF
:101260003068800301D56068D0B32078800718D536
:10127000706810F00C0F07D0706800F00C000828A0
:101280006ED17068C0036BD43068800702D52069C6
:10129000012825D13068616920F0F80040EAC100DA
:1012A0003060207800071FD42078400732D4E569E9
:1012B00095B1706800F00C00082840F08F80012D77
:1012C0000ED07068216A00F480328A4208D1616AC7
:1012D00000F47010884203D1002002B0BDE8F08114
:1012E000012002B0BDE8F081A069002862D0002092
:1012F000C4F242200121C0F88014FFF7D7F8054658
:10130000706A800700F18C80FFF7D0F8401B02283C
:10131000F6D92AE1F06910F0805808D1F06940F060
:101320008050F061F06900F080500090009847F222
:101330000007C4F200073868C00529D4386840F4B3
:1013400080703860FFF7B2F8054600BF3868C00506
:101350001ED4FFF7ABF8401B6428F7D905E100BFA6
:101360002069002840F20000C4F2422000F0828090
:1013700001210160FFF79AF8054600BF3068800739
:101380003FF588AFFFF792F8401B0228F6D9ECE052
:10139000E068002800F08080052800F09780012890
:1013A00000F09880306A20F001003062306A20F04E
:1013B000040092E00020C4F242200021C0F8801412
:1013C000FFF774F8054600BF706A80077FF56CAFC1
:1013D000FFF76CF8401B0228F6D9C6E00027C4F2DC
:1013E000422700203866FFF761F8022D05460BD131
:1013F0003068800140F1BE80FFF758F8401B02289A
:101400004FF00300F4D968E7306880017FF564AFDE
:10141000FFF74CF8401B02284FF00300F4D95CE7BB
:1014200040F20800C2F20000006844F6D351C1F255
:101430006201A0FB0101480A019000BF00BF0198B2
:10144000411E002801913FF42FAF00BF0198411EBB
:10145000002801913FF428AF00BF0198411E0028E9
:1014600001913FF421AF00BF0198411E0028019176
:10147000E4D119E700210160FFF718F8054600BF25
:10148000306880077FF50DAFFFF710F8401B02288A
:101490004FF00300F4D920E7306A20F001003062F9
:1014A000306A20F004003062FFF700F8054641F290
:1014B000883700BF306A800720D5FEF7F7FF401B52
:1014C000B8424FF00300F5D907E700BF306A40F09B
:1014D00004003062306A40F001003062FEF7E6FF3F
:1014E000054641F2883700BF306A800706D4FEF710
:1014F000DDFF401BB842F7D937E000BFB8F1000F5D
:101500007FF4D5AEF06920F08050F061CFE600BFE7
:10151000306820F480303060306820F48020306003
:10152000FEF7C4FF054600BF306880037FF59DAE1F
:10153000FEF7BCFF401B64284FF00300F4D9CCE653
:10154000306840F480203060306840F48030306093
:10155000FEF7ACFF054600BF306880033FF585AE5F
:10156000FEF7A4FF401B6428F6D9032002B0BDE8B3
:10157000F08100BF206AB0F5803F05D17168A26894
:1015800021F40031114371607168626A21F47411B1
:1015900011430843706001203866FEF787FF044658
:1015A000306880013FF598AEFEF780FF001B0228EF
:1015B0004FF00300F4D990E6411E0020B0EB116F0C
:1015C0001CBF012070474EF21002CEF200025160A3
:1015D0004EF62351CEF20001F0230B7007219060EC
:1015E000116070477047000070470000B0B582B0CE
:1015F000026805461068D368546900F02F0120295D
:1016000003F0200106D129B1284602B0BDE8B04060
:1016100000F068BE5FEA007C1EBF04F0010E03F418
:10162000907414EB0E0453D1296B012905D110F0ED
:10163000100118BF13F0100136D1010622D513F0A6
:1016400080011FD095F83D0021283FD1A868B0F552
:10165000805F03D12869002800F0F880286A411CC7
:10166000296200785060E88C01380104E8842DD1AB
:10167000D06820F08000D060D06840F04000D0609A
:1016800002B0B0BD400621D513F040001ED0D06896
:10169000202120F04000D060284685F83D1002B09F
:1016A000BDE8B04000F09EBA0020019010680190A3
:1016B0005068019001985069400611D4A88DE98DB9
:1016C000EB8D002B18BF884240F0A68002B0B0BD61
:1016D000C40718BF13F480732CD1430730D436E00D
:1016E000A86B01684B689CB2002CEFD0A98D8C428E
:1016F000ECD2EB858369202B17D0D16821F480715F
:10170000D160516921F001015161516921F040011D
:101710005161202185F83E1000212963D16821F014
:101720001001D160FEF718FDA98DE88D081A81B26D
:10173000284685E02B6C43F001032B64430706D554
:10174000BEF1000F03D02B6C43F002032B64830720
:1017500006D5BEF1000F03D02B6C43F004032B64BD
:10176000BCF1000F09D541EA0E03B3FA83F35B091C
:1017700003D12B6C43F008032B642B6C002BA5D0FA
:1017800010F0200018BF002903D0284600F0AAFD61
:101790002A685069296C00F0400001F008014018E7
:1017A0002CD0D06820F49070D060506920F00100F7
:1017B0005061286B012803D1D06820F01000D06060
:1017C000202085F83E0000202863506940061DD582
:1017D000506920F040005061A86BB8B142F2D921A5
:1017E000C0F600014163FEF7DBFC00283FF46EAF5A
:1017F000A86B416B02B0BDE8B04008472846FFF730
:10180000F3FE0020286402B0B0BD00BF284602B03D
:10181000BDE8B040FFF7E8BED368401A23F49073E8
:10182000D360536981B223F001035361202385F80B
:101830003E3000232B63D368284623F01003D36087
:1018400002B0BDE8B040FFF7CDBE00BF286A30F857
:10185000021B6FF35F215160286204E7002804BF78
:101860000120704710B5044690F83D0028B90020CB
:1018700084F83C00204600F061F8242084F83D0004
:101880002068D4E90212C36823F40053C3600369DB
:1018900023F440531A430261D4E904231143C2687C
:1018A000194341F20C639A431143C1604169A26933
:1018B00021F44071114343F60002C4F20102904248
:1018C000416103D0FFF776FC02E000BFFFF786FC22
:1018D0006268192148439100B0FBF1F048F21F51B2
:1018E000C5F2EB11A0FB01235A094FF69C73C0F619
:1018F000FF7302FB0300322303EB0010A0FB010186
:10190000F02303EA5113206803EB0212C1F34311E1
:1019100011448160016921F490410161416921F024
:101920002A014161C16841F40051C16000202021B9
:10193000206484F83D1084F83E1010BD70B586B068
:1019400040F60004C4F20104006804F5405100268A
:101950008842049602D006B070BD00BF41F2180064
:10196000C4F20200016802AD41F4804101600168E7
:1019700001F4804101910199016841F00401016085
:101980000068294600F00400019001984FF40070AF
:10199000029002200390032005902046FEF76EFC83
:1019A0004FF48060CDE90206204629460496FEF7F2
:1019B00065FC252001210022FFF7E0FA2520FFF732
:1019C000C9FA06B070BD0000034690F83E0020281A
:1019D0000AD100294FF0010018BF002A00D170473A
:1019E00093F83C00012801D10220704700201863C1
:1019F000996222219A85DA85186483F83E10196865
:101A000083F83C00CA6842F48072CA604A6942F0B6
:101A100001024A61CA6842F02002CA6070470000B1
:101A200040F22001C2F2000100688A69904218BFAA
:101A3000704701F1180002311422FFF7C5BF000002
:101A40002DE9F041044690F83D0020280ED10D46C6
:101A500000294FF0010000F08E801646002A08BFD2
:101A6000BDE8F08194F83C00012803D10220BDE8D4
:101A7000F08100BF012084F83C0000202064212078
:101A8000984684F83D00FEF711FDA684E684A1681F
:101A90000646B1F5805F03D12069002800F0A080E0
:101AA0002F460025002084F83C00E08CE0B118F1BE
:101AB00001001BD0B8F1000F60D120680BE000BF1F
:101AC00035F8021B00276FF35F214160E18C01397B
:101AD000E184E18C51B3016809066DD5002FEFD088
:101AE00017F8011BF1E700BF20681FE0206802E043
:101AF0000168090609D40168090606D401680906C7
:101B00005CBF01685FEA0161F2D51FB117F8011BE4
:101B100005E000BF35F8021B00276FF35F2141602D
:101B2000E18C0139E184E18C0029E4D101684906A6
:101B30001DD4B8F1000F3FD018F101010ED101689A
:101B4000490614D4016849065CBF01685FEA416137
:101B50000DD401684906F2D509E000BFFEF7A6FCE6
:101B6000811B2068414527D800684006F6D5202013
:101B700084F83D000020BDE8F08100BF206800BF70
:101B80000168090606D4FEF791FC811B20684145D7
:101B9000F6D911E017B117F8011B04E035F8021B64
:101BA00000276FF35F214160E18C0139E184E18C12
:101BB0000029E5D1BAE700BFC16821F4D071C16046
:101BC000416921F001014161202084F83D0084F841
:101BD0003E00002084F83C000320BDE8F08100BFF7
:101BE00000275FE770470000FEE7000040F27C003E
:101BF000C2F20000FEF764BC40F27C00C2F20000BA
:101C0000FEF704BD10B581B000210091406A40F29A
:101C10000801C2F2000190F83DC009684BF28952F8
:101C2000C908C1F2F842A1FB0212110A2322514352
:101C30000091009911B30099013900910168096878
:101C400089051FD50099C9B1009901390091016832
:101C50000968890516D5009981B10099013900916B
:101C60000168096889050DD5009939B100990139D4
:101C70000091016809688905DBD403E0016C41F03B
:101C800020010164446B4FF0000E002C1CBF0021AA
:101C9000A162816B00291CBF00228A620268002CAD
:101CA000136823F480631360A0F82AE018BFC4F817
:101CB00034E000291CBF00234B63116821F00101AF
:101CC000116090F83D1060290CD1202180F83D1062
:101CD000002180F83E10016401B0BDE81040FEF71D
:101CE000EBBB00BF0CF02801282911D1116841F08D
:101CF00001011160116841F48061116000210163EC
:101D0000282180F83D1001B0BDE81040FEF7ACBFBF
:101D1000202180F83D10002180F83E1001B0BDE880
:101D20001040FEF7A1BF000010B5044690F83D102A
:101D300090F83E00B0F1100218BF0122403818BFE1
:101D40000120024208BF222934D001F028002828AF
:101D50003AD100202063282084F83D0020684168A3
:101D6000090542D5416821F400614160606B90F83B
:101D70002110012958D1A06B41F60541C0F60001A0
:101D80004163FEF70DFA002861D0206841694906D9
:101D900006D50069616A0870616A20680131616274
:101DA000016821F001010160202084F83D00A06B52
:101DB0004BE000BF2068026822F4006202604268C3
:101DC000120505D50CE000BF20684268120507D453
:101DD000602905D0202184F83D10002184F83E10B0
:101DE0000021216341680905BCD494F83D106029A5
:101DF00050D1202184F83D10002121644169490619
:101E000006D50069616A0870616A20680131616203
:101E1000016821F0010101602046FEF74DFB206CB6
:101E2000000717D11BE000BF41F60541C0F60001D5
:101E30004163FEF7B5F950B12168606B0A6822F082
:101E400001020A60202184F83D10416B8847206C14
:101E5000000704D02068416821F4E061416094F8F3
:101E60003D00216C490758BF10BD282810D1002023
:101E7000CFF6FF70E06200212020216384F83D004E
:101E8000204684F83E10BDE81040FEF7ABBF00BF0F
:101E900010BD00BF4169490605D50069616A087037
:101EA000606A013060622046FEF7DEFE206C0007AB
:101EB000D0D1D4E7C16A428D042A07D10168426AB1
:101EC0004B6823F480634B60096911E0428D032A5B
:101ED00016D102680229536823F48063536005D049
:101EE000042903D0116821F4806111601169426AEC
:101EF0001170416A01314162418D0139418570475C
:101F0000428D022A12D101390F2919D8DFE801F0D8
:101F1000081218121818181818181818181818086D
:101F200001680A6822F480620EE000BF0168426A1C
:101F3000CAE700BF01680A6842F4806204E000BF9B
:101F400001680A6842F400720A600969426A117005
:101F5000416A02684B1C4362438D013B4385126911
:101F60004A70416A026801314162418D01394185FF
:101F7000516821F440715160202180F83D1090F8A3
:101F80003E200021402A80F83E1003D10163FEF775
:101F90002FBF00BF12210163FEF726BF81B090F86A
:101FA0003D10222972D1418D042913D30168426A60
:101FB00009691170416A01314162418D01394185E0
:101FC000418D032962D10068416821F4806141603C
:101FD0005CE000BFC26A022A58D0012956D800210D
:101FE000009140F20801C2F2000109684BF28952E7
:101FF000C908C1F2F842A1FB0212110A01EB8101EA
:1020000000910099013900910099002940D00168A0
:102010000A6892051AD50099013900910099B9B35F
:1020200001680A68920511D500990139009100995B
:1020300071B301680A68920508D5009901390091C9
:10204000009929B301680A689205DAD40A6822F473
:1020500080620A604A6822F4E0624A600969426A62
:102060001170416A01314162418D01394185202160
:1020700080F83D1090F83E200021402A80F83E1064
:1020800022D1016301B0FEF7B3BE00BF01B07047BB
:10209000016C41F0200101640168426A4B6823F43D
:1020A000E0634B6009691170416A01314162418D01
:1020B00001394185202180F83D10002180F83E1033
:1020C00001B0FEF7D1BD00BF1221016301B0FEF7E0
:1020D0008BBE0000C16A90F83D20212A18BF7047CE
:1020E000428D4AB1416A026811F8013B13614162B5
:1020F000418D01394185704711F5803F18BF08298E
:1021000018D101684A6822F4E0624A600A6842F421
:1021100000720A6000212022016380F83D2090F8BF
:102120003E2080F83E10402A08BFFEF763BEFEF74F
:102130005DBE00BF2029E4D001684A6822F4E06255
:102140004A6011210163002180F83E10202180F8AF
:102150003D10FEF74BBE000090F83D1090F83EC0D9
:10216000C26A038D002B08BF212919D0212905D06F
:10217000BCF1400F08BF222900D07047418D69B3E0
:1021800090F83E10402908BF00F040B8416A02684C
:1021900011F8013B13614162418D0139418570475E
:1021A00012F5803F18BF082A1ED101684A6822F440
:1021B000E0624A600A6842F400720A60002120224C
:1021C000016380F83D2090F83E2080F83E10402AC0
:1021D00008BFFEF70FBEFEF709BE00BF00684168EA
:1021E00021F4806141607047202ADED001684A688E
:1021F00022F4E0624A6011210163002180F83E1060
:10220000202180F83D10FEF7F1BD000090F83D1050
:10221000026D5AB1026D012A14D10168826CD2B2EA
:102220000A61016D01310165704700BFC26C816CAC
:10223000012A17D10268C9B21161016D023101652D
:10224000704700BF026D022A18BF7047222911D1C2
:1022500001680A6842F480720A60016D013101650B
:10226000704700BF0268C1F307211161016D0131A0
:10227000016512E0428D5AB1212909D1416A0268F3
:1022800011F8013B13614162418D0139418570476D
:10229000428D002A08BF212900D0704701684A6892
:1022A00022F4E0624A600A6842F400720A60002187
:1022B0002022016380F83D2080F83E10FEF79ABD91
:1022C000FEE7000070470000704700007047000004
:1022D000FEF7D8BD70470000406A0021C185C18467
:1022E000FFF782B981B090F83E10222921D183688E
:1022F0000246B3F5805F09D152F8281F52F8183C06
:10230000002B3FD003685B680AE000BF52F8281F2B
:1023100013B90369002BF5D003685B6803F07F03F2
:102320000B70116801311160C18D01390A04C1853A
:1023300002D001B0704700BF0168CA6822F02002D5
:10234000CA60CA6822F48072CA604A6922F0010237
:102350004A61202280F83E20026B012A1AD1002215
:102360000263CB6823F01003CB600B68DB0605D556
:1023700000920A680092496800910099818D01B02D
:10238000FFF730B9026852686FF35F2221F8022B21
:102390008162C9E701B0FFF743BB000040F238009B
:1023A000C2F20000FFF722B9FEE7000090B040F64D
:1023B0000004C4F20104FEF773FD4FF000094FF46E
:1023C00080300226CDE90709CDE90D604FF4E01019
:1023D0004FF001080F9006A8CDE90B99CDE90999B6
:1023E000CDF81880CDF82880FEF70CFF0F2001A94A
:1023F00081E841024FF48060CDE9040901A802217F
:10240000FEF7F8FD41F21800C4F20200016804F57D
:10241000006541F0100101600168002201F0100127
:102420000691069901684FF4005741F020010160C0
:10243000016801F0200106910699016841F004014C
:102440000160016801F0040106910699016841F0FC
:102450000801016000684FF4005100F00800069088
:1024600006982846FEF71CF806A8099606AE80E8EE
:10247000800328463146FDF701FF20463146CDE96D
:102480000689CDF82080FDF7F9FE03200690002094
:10249000C1F22100CDE9070804F580603146FDF75F
:1024A000EDFE062000210022FEF768FD0620FEF763
:1024B00051FD072000210022FEF760FD0720FEF7F6
:1024C00049FD40F27C00A4F53441C2F2000048F21C
:1024D000A0624FF48043C0F2010280E80602C0E926
:1024E0000393C0E90599C0E90799FEF7BFFB40F2E5
:1024F0002006C2F2000604F54050374647F8180F90
:102500004FF4E1300C21C7E901093846C7E90399C6
:10251000C7E90519C7F81C90FFF7A0F9A7F1160144
:1025200038461422FFF750FA40F20C07C2F20007B7
:1025300020460121FDF7A6FF0028F9D11420FDF760
:1025400089FE20460121FDF79DFF0028F0D100BF44
:1025500020460121FDF796FF0028F9D028464FF4C8
:102560000051FDF795FF06F1180039460D220A23A8
:10257000FFF766FA308801303080D9E702E008C8FA
:10258000121F08C1002AFAD170477047002001E0ED
:1025900001C1121F002AFBD1704701020000000098
:1025A0000000000001020304060708090000000003
:1025B0000102030402030405060708090A0B0C0DB7
:1025C0000E0F1010E8250008000000202000000079
:1025D0007C2500080826000820000020B804000020
:1025E0008C25000800000000010000001000000021
:1025F0000024F40048656C6C6F20776F726C640A7D
:082600000000000000000000D2
:04000005080000ED02
:00000001FF
